:020000040800F2
:10000000E80400204901000877200008551F000877
:1000100075200008090A0008872300080000000076
:100020000000000000000000000000007B2000082D
:100030000B0A000800000000792000087D2000085D
:100040006301000863010008630100086301000800
:1000500063010008630100086301000863010008F0
:1000600063010008630100086301000863010008E0
:1000700063010008630100086301000863010008D0
:1000800063010008630100082909000863010008F2
:1000900063010008630100086301000863010008B0
:1000A00063010008630100086301000863010008A0
:1000B000FD200008630100086301000863010008D7
:1000C0006301000863010008630100086301000880
:1000D0006301000863010008630100086301000870
:1000E0006301000863010008630100086301000860
:1000F0006301000863010008630100086301000850
:10010000630100086301000863010008630100083F
:10011000630100086301000863010008630100082F
:10012000630100086301000863010008630100081F
:10013000DFF810D000F0E6FB00480047D12C0008A3
:10014000AFF30080E80400200648804706480047D7
:10015000FEE7FEE7FEE7FEE7FEE7FEE7FEE7FEE777
:10016000FEE7FEE7FB20000831010008202A04DB3F
:10017000203A21FA02F00021704721FA02F3D04020
:10018000C2F120029140084319467047D2B201E003
:1001900000F8012B491EFBD270470022F6E710B58C
:1001A00013460A4604461946FFF7F0FF204610BDE5
:1001B000F0B480EA0102D40F4200B2EB410F02D248
:1001C0000246084611464A0042D0C30DDDB2C1F3D3
:1001D000C752AD1A202D35DAC1F3160141F40002E1
:1001E00004B15242C5F1200602FA06F12A41104438
:1001F000B3EBD05F23D0C4B1012DA0EBC35009DC19
:10020000F0BC4FF0004202EAC352DBB200F500003E
:1002100000F0BDBA400000F1807000EBC350A0F1C7
:10022000807040EAD170490009E0490841EAC07194
:10023000A0EBC35000F50000400800EBC350F0BC39
:1002400000F09CBA6142012202EB4101001BF6E77B
:10025000F0BC704781F00041AAE780F00040A7E7BA
:1002600080EA010210B502F00043400022D04A00AB
:100270001FD0010E01EB1261C0F35600C2F356020B
:1002800040F4000042F40002A0FB022000047F3989
:10029000140400D0401C50EA124001D44000491E12
:1002A000C2B20C0604EBD010401C4008802A02D0D9
:1002B00003E0002010BD20F00100002900DA00203A
:1002C000184310BD2DE9FE4F804681EA0300C00FA0
:1002D0000C46009021F0004123F00045B8EB0200ED
:1002E000A94105D24046214690461C460B4602468F
:1002F00023F00040104347D0270DC7F30A00C3F393
:100300000A510290401A019040286BDAC3F313009F
:1003100040F4801B0098924620B10023D2EB030AE0
:1003200063EB0B0B01985946C0F14002504600F0B8
:1003300004FA06460D4650465946019A00F00CFA5A
:1003400010EB08006141002487EA115284EAE77348
:100350001A4340D0009A62B3019A012A4FEA075229
:1003600015DC001B61EB02014FF0004202EA07526C
:10037000CDE90042001C41F5801132462B4600F0C9
:1003800043FA03B0BDE8F08F40462146F9E7001B71
:1003900061EB0201001C41F5801300185B4120183D
:1003A000A2F5001747EB030140EAD570B6196D417D
:1003B00011E06D084FEA360645EAC0754FEA07526C
:1003C000001B61EB0201001C41F5801149084FEA56
:1003D00030000019514132462B4603B0BDE8F04FC2
:1003E00000F003BA0098012240000023D0EB020283
:1003F00063EBE073009821464FEAE074B8EB00002D
:1004000061EB0401E9E783F000435BE781F0004121
:1004100058E72DE9FE4F81EA030404F0004421F07F
:10042000004100944FF0000B23F0004350EA010418
:100430005ED052EA03045BD0C3F30A54C1F30A55F9
:100440002C44A4F2F3340194A0FB0254C1F3130131
:1004500041F48011C3F3130343F4801301FB0244FE
:1004600000FB034E840A970A44EA815447EA835703
:10047000A4FB076802958D0A05FB07854FEA932CBC
:1004800004FB0C542705029D4FEA065847EA16372D
:10049000B5EB08056EEB070C870E920E47EA811745
:1004A00042EA8312A7FB0201B6EB0B0164EB0004E6
:1004B0002B0D43EA0C335E1844EB1C50DA465146D0
:1004C000E7FB0201C5F313044FEA0B3343EA14536D
:1004D0004FEA0432019C43EA0603A4F10C0402949F
:1004E000009CCDE900B400F08FF903B0BDE8F08FB7
:1004F00000200146F9E72DE9F04D81EA030404F0FC
:10050000004B21F0004514464FF0000A23F0004153
:1005100050EA050220D054EA01021DD0C5F30A5763
:100520000246C5F31303C1F31300C1F30A5640F4A6
:10053000801543F48013A7EB0608101BD64608F27B
:10054000FD3873EB050002D308F1010801E09218B1
:100550005B41B8F1000F03DA00200146BDE8F08DE1
:1005600000204FF48011064684460EE0171B73EB03
:10057000050705D3121B63EB050306434CEA010C88
:1005800049084FEA300092185B4150EA0107EDD16B
:1005900052EA030012D082EA040083EA050108430C
:1005A00005D0101BAB4106D20122002306E0002239
:1005B0004FF0004302E06FF0010253101AEB060007
:1005C0004CEB085110EB0A0041EB0B01BDE8F04D7C
:1005D00000F00BB970B521F0004303430CD0C1F318
:1005E0000A550024D5EB040564EB0403D617AD1AB5
:1005F000B34102DB0020014670BD201841EB0251DF
:1006000070BD96230022114600F0C1B80EB540F22D
:10061000334102910021CDE900110A460B4600F05A
:10062000F3F803B000BD20F00040C10DC0F3160088
:1006300040F400007F2901DA00207047962903DC8E
:10064000C1F19601C840704796398840704700F064
:10065000004230F000400AD0C10D01F56071C0F3D6
:10066000160042EA0151C2084007114370470020BA
:100670000146704701F0004330B421F0004150EAD8
:10068000010206D00A0DA2F56072C1F31301002A1F
:1006900002DC30BC00207047440F44EAC104C100B2
:1006A000E01830BC00EBC25000F068B830B50B4623
:1006B000014600202022012409E021FA02F59D4292
:1006C00005D303FA02F5491B04FA02F52844151E66
:1006D000A2F10102F1DC30BD2DE9F05F05460020FA
:1006E00092469B4688460646814640241BE02846A3
:1006F000414647462246FFF739FD53465A46C01A3F
:10070000914110D311461846224600F016F82D1AD2
:1007100067EB01084F4622460120002100F00DF84A
:1007200017EB00094E41201EA4F10104DFDC48460E
:1007300031462A464346BDE8F09F202A04DB203A92
:1007400000FA02F1002070479140C2F1200320FA24
:1007500003F3194390407047202A06DBCB17203A59
:1007600041FA02F043EAE07306E041FA02F3D040B6
:10077000C2F1200291400843194670470029A8BFE2
:100780007047401C490008BF20F00100704710B4BA
:10079000B0FA80FC00FA0CF050EA010404BF10BC6F
:1007A000704749B1CCF1200421FA04F411FA0CF19C
:1007B00018BF012121430843A3EB0C01CB1D4FEAD5
:1007C00000614FEA102042BF002010BC704700EBD0
:1007D000C35010440029A4BF10BC7047401C4900FE
:1007E00008BF20F0010010BC704710B5141E73F153
:1007F000000408DA401C41F1000192185B411A43E1
:1008000001D120F0010010BD2DE9F04D92469B462C
:1008100011B1B1FA81F202E0B0FA80F220329046D2
:10082000FFF78BFF04460F4640EA0A0041EA0B013E
:1008300053465A46084313D0114653EA010019D0D3
:10084000C8F140025046FFF791FC05460E4650465F
:1008500059464246FFF771FF084305D0012004E0E6
:1008600020463946BDE8F08D0020054346EAE07693
:100870002C4337430A986305E40AA0EB08000022E2
:10088000FD0A44EA47540A3002D500200146E9E750
:10089000010510196941DDE9084500196941BDE804
:1008A000F04DA2E7C1F30A52C1F3130140F2FF3346
:1008B00041F480119A4202DA00200146704740F26A
:1008C00033439A42A2F2334202DC5242FFF74EBC5B
:1008D000FFF733BF30B5041E71F1000404DB4FF0A5
:1008E0000044404264EB0101141E73F1000405DB77
:1008F0001C464FF00043524263EB0403994208BF89
:10090000904230BD064C074D06E0E06840F0010320
:1009100094E8070098471034AC42F6D3FFF70CFC7C
:10092000402D0008602D0008014800F063B9000068
:100930002800002070B5044600688168C943C907D3
:1009400017D1816821F00101816000F0E9FB0546C3
:100950000AE000BF00F0E4FB401B022804D9206835
:100960008068C043C00706D020688068C043C007C5
:10097000F0D0002070BDA06A40F01000A062E06AD4
:1009800040F00100E062012070BD0000F8B50026D3
:100990000446009600688168C943C9072DD0816864
:1009A00041F001018160164816490068B0FBF1F082
:1009B00000E0401E00900028FBD100F0B1FB05468E
:1009C00016E000BF00F0ACFB401B022810D92068E5
:1009D0008068C043C0070BD0A06A40F01000A0623E
:1009E000E06A40F00100E06284F824600120F8BD74
:1009F00020688068C043C007E4D10020F8BD000033
:100A00002000002040420F00FEE7704772B6FEE76C
:100A1000F8B500250446009590F8240001280BD075
:100A2000012084F824002046FFF784FF2046FFF7CA
:100A3000ADFF060002D050E00220F8BDA06A20F40D
:100A4000885040F00200A062022000F007FC254917
:100A50000968B1FBF0F0400000E0401E0090002863
:100A6000FBD12068816841F00801816000F058FBEB
:100A7000074608E000F054FBC01B0A2803D9206891
:100A80008068000715D4206880680007F2D42068C9
:100A9000816841F00401816000F042FB074612E0EA
:100AA00000F03EFBC01B0A280DD920688068400773
:100AB00009D5A06A20F0020040F01000A06284F87E
:100AC00024500120F8BD206880684007E8D4A06A5F
:100AD00020F0020040F00100A06284F8245030466B
:100AE000F8BD00002000002070470000F8B5002489
:100AF000009490F824202546012A12D0012280F883
:100B000024204A681F23072A0DD20668776B521EDD
:100B100002EB820293409F430B6893401F4377632D
:100B200019E00220F8BD06680D2A0AD2376BD21FE1
:100B300002EB820293409F430B6893401F4337634D
:100B400009E0F76A0D3A02EB820293409F430B687B
:100B500093401F43F7620A68072306680A2A0AD3EC
:100B6000F7680A3A02EB420293409F438B68934036
:100B70001F43F76008E0376902EB420293409F434E
:100B80008B6893401F4337610A68102A01D0112AED
:100B900020D1124B02689A4217D193681B0219D4D4
:100BA000936843F4000393600968102912D10C493B
:100BB0000C4A0968B1FBF2F101EB8101490000E048
:100BC000491E00910029FBD104E0816A41F0200117
:100BD0008162012480F824502046F8BD00240140A1
:100BE0002000002040420F007047806A7047006874
:100BF000C06C704770B50446006806684568A90671
:100C000025D5B10723D5A16AC90603D4A16A41F449
:100C10000071A1628168C1F34241072910D1217B93
:100C200071B9416821F020014160A06A20F4807010
:100C3000A062A06AC00403D4A06A40F00100A062D0
:100C40002046FFF7D1FF21686FF0120008602806E8
:100C50002ED570072CD5A06AC00603D4A06A40F434
:100C60000050A06220688168C1F30231072909D0D1
:100C70004168490515D48168C1F34241072910D163
:100C8000217B71B9416821F080014160A06A20F4A4
:100C90008050A062A06AC00503D4A06A40F00100A1
:100CA000A0622046FFF720FF21686FF00C0008606B
:100CB00068060CD5F0070AD0A06A40F48030A06224
:100CC000204600F095F821686FF00100086070BDC3
:100CD0002DE9F04104004FF000057FD0A06A002606
:100CE00028B9E66284F82460204600F083F82046A4
:100CF000FFF720FEA16AC90600D420B1A06A40F027
:100D00001000A0626AE0A16A21F4885141F002015A
:100D1000A162334923688B42E16904D1B1F5402FC8
:100D200001D14FF40021277B4FF4807C41EA470238
:100D300061680A43A168614508D0012906D00021F5
:100D400094F814E0BEF1010F02D00AE06146F7E723
:100D5000C7B1A76A47F02007A762E76A47F0010713
:100D6000E7625F6827F469470F435F60236899680B
:100D70001C4F394011439960A16861450BD001298E
:100D800009D00CE0DFF860E0A7690EEB47370F43AE
:100D900047F40061E5E7218A0D05A5F58015216876
:100DA000CB6A23F470032B43CB62216889680F4B15
:100DB0001940914208D1E662A16A21F0020141F096
:100DC0000101A162BDE8F081A06A20F0020040F0BC
:100DD0001000A062E06A40F00100E0620120F1E74B
:100DE000003C0140FDF7E1FF00E0FFFFFE0E1FFFAA
:100DF0007047000000B585B000210091019102917B
:100E0000039100681249884220D11248816941F457
:100E100000718161816901F400710491816941F07F
:100E2000100181618069694600F010000490012082
:100E3000009003200190084800F076F80022114647
:100E4000122000F0D9F9122000F0C8F905B000BD59
:100E500000240140001002400010014070B504461B
:100E600090F8240001280DD0012084F824002046A9
:100E7000FFF78CFD02004FF0000005D084F824003D
:100E8000104670BD022070BDA16A40F6016399430F
:100E900041F48071A162224D23682249AB4218D1EE
:100EA0000E6816F4702F14D0A66A46F48016A66257
:100EB0000E68760505D5A66A26F4005646F48056D7
:100EC000A662A66AF6040AD5E66A26F00606E66277
:100ED00006E0A66A26F48016A6625E68E9E7E0628C
:100EE00084F824006FF0020018602068436843F023
:100EF0002003436020688368C3F34243072B05D176
:100F0000A84208D1096811F4702F04D0816841F417
:100F100080118160B4E7816841F4A001F9E7000025
:100F200000280140042401402DE9F84FDFF8C89162
:100F30000024A9F1040B23460F2709F1040AABF1A1
:100F4000040ED1E00125A54006EA0502AA4276D1A9
:100F5000DFF8A8C14E68A6EB0C0866452BD00DDC67
:100F6000032E34D005DC36B3012E19D0022E2FD13A
:100F70001BE0112E16D0122E2AD119E0B8F5881FC9
:100F800019D006DCB8F5803F15D0B8F5801F1FD109
:100F900011E0B8F5001F0ED0B8F5041F18D10AE013
:100FA000CB6815E0CB681B1D12E0CB6808330FE05F
:100FB000CB680C330CE08B682BB1012B4FF008038E
:100FC00003D0456104E0042302E0056100E0002352
:100FD000FF2A01D8064601E000F104064FEA840525
:100FE00001D9A5F12005D6F8008007FA05FC28EA0A
:100FF0000C0803FA05F548EA0508C6F800804D68B4
:10100000ED0070D53E4DAE6946F00106AE61AD69AA
:1010100024F0030605F0010500953A4D06EB050C9A
:10102000DCF80850A607360F07FA06F825EA080587
:10103000DFF8D480404503D14FF0000825E052E0AE
:10104000DFF8C880404502D14FF001081DE0DFF80D
:10105000C080404502D14FF0020816E0DFF8B480AE
:10106000404502D14FF003080FE0DFF8AC80404567
:1010700002D14FF0040808E0DFF8A080404502D11B
:101080004FF0050801E04FF0060808FA06F848EAB4
:101090000508CCF808804D68D9F80060ED024D468F
:1010A00001D5164300E096432E604D68DAF80060E3
:1010B000AD02554601D5164300E096432E604D68BB
:1010C000DBF80060AD035D4601D5164300E09643B2
:1010D0002E604D68DEF80060ED03754601D51643BD
:1010E00000E096432E60641C0A681646E2407FF4D6
:1010F00029AFBDE8F88F000008040140000011107E
:10110000001002400000014000080140000C0140B6
:10111000001001400014014000180140001C014073
:101120000148806870470000140000200248816870
:10113000027811448160704714000020074810B500
:10114000016841F010010160032000F075F80F20E4
:1011500000F006F800F024F8002010BD0020024046
:1011600070B50D4D04464FF47A712878B1FBF0F05C
:101170000A490968B1FBF0F000F0AEFB48B9102C49
:1011800007D200222146501E00F036F800206C6085
:1011900070BD012070BD0000140000202000002060
:1011A0000C4808B5816941F001018161816901F054
:1011B00001010091C16941F08051C161C06900F035
:1011C000805000900448416821F0E06141F00071D6
:1011D000416008BD0010024000000140002809DB0A
:1011E00000F01F02012191404009800000F1E02041
:1011F000C0F8001170470000F0B40E4B1B680C469D
:10120000C3F30223C3F10705042D00D90425191DDA
:10121000072901D2002300E0DB1E012606FA05F1B2
:10122000491E214099409E40761E16403143F0BC35
:1012300001F0BAB80CED00E0064900F007020868BA
:101240004FF6FF03184040EA0220034A10430860AB
:10125000704700000CED00E00000FA0510B50146F3
:101260000020284C04292FD00BDC012930D0022982
:1012700029D100F06BF96168C1F38131491C490043
:101280001FE0082920D010291DD161682268D201F1
:1012900019D51D48C1F38342C903805C0AD5616832
:1012A000194AC1F34041921E515C184AB2FBF1F158
:1012B000484301E0164948436168490203D44000AD
:1012C0000321B0FBF1F010BDBDE8104000F04EB9B5
:1012D000226AC2F30121012903D1920701D5C80373
:1012E00010BD022905D1626A920702D549F6404035
:1012F00010BD0329FCD121688903F9D54FF22440A0
:1013000010BD000000100240182D000800127A00E5
:1013100000093D002DE9F84305460078354CC0072B
:1013200054D0E0690026C00008D4E06940F0805045
:10133000E061E069012600F0805000902E480168CD
:10134000C90512D40168804641F480710160FFF73D
:10135000E7FE074605E000BFFFF7E2FEC01B64287A
:1013600023D8D8F80000C005F6D5206A10F44070E4
:1013700021D0A98801F4407181421CD0206A1F4904
:10138000012220F440700A6000220A602062C00737
:1013900011D0FFF7C5FE074641F2883808E000BFCC
:1013A000FFF7BEFEC11B414502D90320BDE8F8830B
:1013B000206A8007F4D5206A696820F440700843E9
:1013C00020621EB1E06920F08050E061287880073B
:1013D00005D56068A96820F440400843606028781B
:1013E000C00605D56068696920F480000843606024
:1013F0000020DBE700100240007000404004424241
:101400002DE9F0470F46050061D0434E306800F0EB
:101410000700B84209D2306820F007003843306036
:10142000306800F00700B84251D128683B4C810772
:1014300012D5400703D5606840F4E060606028780A
:10144000000703D5606840F4605060606068A96878
:1014500020F0F000084360602878C00728D0686852
:10146000012810D02168022810D0890700292EDA1F
:10147000616821F0030101436160FFF751FE80467E
:1014800041F288390DE021688903EFE78901EDE732
:10149000FFF746FEA0EB0801494502D90320BDE84D
:1014A000F0876068696800F00C00B0EB810FEFD145
:1014B000306800F00700B8420BD9306820F0070010
:1014C00038433060306800F00700B84201D0012096
:1014D000E5E72878400705D56068E96820F4E06012
:1014E000084360602878000706D56068296920F401
:1014F000605040EAC100606000F038F86168084A56
:10150000C1F30311515CC8400649086006480068F1
:10151000FFF726FE0020C2E7002002400010024034
:10152000282D00082000002018000020044805494C
:1015300000684968044AC1F30221515CC840704701
:101540002000002000100240382D00080448054902
:1015500000684968044AC1F3C221515CC840704721
:101560002000002000100240382D00080E4A51686B
:101570000E4801F00C03042B11D0082B0FD10C489E
:10158000C1F38343C903C05C0AD55168084AC1F35B
:101590004041921E515C054A5043B0FBF1F0704748
:1015A00004494843704700000010024000127A00CE
:1015B000062D000800093D002DE9F84F040070D009
:1015C0002078C04DC00749D06868C0F38100012869
:1015D00007D06868C0F38100022809D16868C00399
:1015E00006D52868800339D560680028E7D035E043
:1015F0006068B0F5803F0BD010B1B0F5A02F11D0CE
:10160000286820F480302860286820F4802002E0D8
:10161000286840F480302860606890B1FFF780FD52
:1016200006460AE0286840F480202860F0E700BF02
:10163000FFF776FD801B642873D828688003F7D5F0
:101640000CE0FFF76DFD064605E000BFFFF768FD03
:10165000801B6428F0D828688003F7D420789A4E3D
:1016600080074FF001094FF0000839D5686810F085
:101670000C0F07D06868C0F38100022809D16868A0
:10168000C00306D42868800714D52069012808D132
:1016900010E02069B0B1C6F80090FFF741FD0746A1
:1016A00005E00AE1FFF73CFDC01B0228C4D828680A
:1016B0008007F7D52868616920F0F80040EAC1008A
:1016C00028600DE0C6F80080FFF72AFD074604E019
:1016D000FFF726FDC01B022823D828688007F7D40F
:1016E000207800072CD57948A169D9B1C0F80090BD
:1016F000FFF716FD074604E0FFF712FDC01B0228A6
:101700000FD8686A8007F7D571484FF4FA5100681E
:10171000B0FBF1F0009000BF0098411E0091FAD29A
:101720000EE080E0C0F80080FFF7FAFC074604E016
:10173000FFF7F6FCC01B022875D8686A8007F7D44B
:101740002078400760D5E8690027C00008D4E86920
:1017500040F08050E861E869012700F08050009077
:101760005C480168C90513D40168834641F480715F
:101770000160FFF7D5FC824606E000BFFFF7D0FC12
:10178000A0EB0A0064284ED8DBF80000C005F5D5B0
:10179000E06801280AD008B1052813D0286A20F093
:1017A00001002862286A20F0040002E0286A40F064
:1017B00001002862E06841F2883B98B1FFF7B0FC75
:1017C00082460BE0286A40F004002862EEE700BF82
:1017D000FFF7A6FCA0EB0A0159455AD8286A8007F2
:1017E000F6D50CE0FFF79CFC824605E0FFF798FC7D
:1017F000A0EB0A0159454CD8286A8007F6D41FB1DE
:10180000E86920F08050E861E06988B36968C1F355
:101810008101022944D00228C6F8608004D0FFF775
:101820007FFC044638E034E0FFF77AFC074604E02A
:10183000FFF776FCC01B02282BD828688001F7D45C
:10184000206AB0F5803F05D16868A16820F40030B7
:1018500008436860D4E908010843696821F47411F9
:1018600008436860C6F86090FFF75AFC044606E03B
:1018700025E000BFFFF754FC001B022809D82868A8
:101880008001F7D51BE000BFFFF74AFC001B0228D0
:1018900002D90320BDE8F88F28688001F4D40EE057
:1018A0000128F7D06868226A00F48031914204D19F
:1018B000616A00F47010884201D00120EAE700203C
:1018C000E8E700000010024000004242800442426B
:1018D000200000200070004010B5401EB0F1807F55
:1018E00001D3012010BD4FF0E02460610F2160178B
:1018F00000F05AFD0020A06107202061002010BDEB
:101900007047704770B590F83C20012A2CD0012414
:1019100080F83C40022280F83D2003685A689D68A8
:1019200022F070060A6832435A60104B02689A42ED
:101930000ED00F4B9A420BD0B2F1804F08D00D4B16
:101940009A4205D00C4B9A4202D00C4B9A4204D1D9
:10195000496825F080031943916080F83D400021DB
:1019600080F83C10084670BD022070BD002C01407C
:10197000003401400004004000080040000C00401A
:1019800010B5040003D094F83D0010B107E0012029
:1019900010BD002084F83C00204600F01FF8022013
:1019A00084F83D00211D206800F0AEFB012084F882
:1019B000460084F83E0084F83F0084F8400084F834
:1019C000410084F8420084F8430084F8440084F81D
:1019D000450084F83D00002010BD000008B50068F7
:1019E000B0F1804F12D10A48C16941F00101C161D3
:1019F000C069002200F00100009011461C20FFF792
:101A0000FBFBBDE808401C20FFF7E8BB08BD000059
:101A10000010024090F83D10012901D001207047CC
:101A2000022180F83D100168CA6842F00102CA60D4
:101A300000680E4988420ED00D4988420BD0B0F1A3
:101A4000804F08D00B49884205D00B49884202D00C
:101A50000A49884204D1816801F00701062903D0B0
:101A6000016841F00101016000207047002C014035
:101A7000003401400004004000080040000C004019
:101A800070B5044690F83C000025012817D00126C7
:101A900084F83C60022084F83D002068826822F0CF
:101AA000770222F47F4282600868502838D00DDC2B
:101AB00020284FD005DC90B3102811D14AE0022035
:101AC00070BD302846D040280AD13BE060282FD096
:101AD00070280DD0B0F5805F03D0B0F5005F12D054
:101AE000012584F83D60002084F83C00284670BD44
:101AF000CB68D1E90121206800F054FB206881689F
:101B000041F0770109E0CB68D1E90121206800F0BC
:101B100049FB2068816841F480418160E1E719E078
:101B2000CA684968206800F04FFB5021206806E031
:101B3000CA684968206800F058FB6021206800F0FE
:101B40003BFBCEE7CA684968206800F03DFB4021B6
:101B50002068F4E7226801461046F0E770472DE957
:101B6000F04104460068C66805694FF00007A90700
:101B700013D5B10711D5F91E016101202077206826
:101B800080698007204602D0FFF7E8FF04E000F0FC
:101B90007EF8204600F07CF82777680716D5700796
:101BA00014D521686FF004000861022020772068B6
:101BB000806910F4407F204602D0FFF7CFFF04E099
:101BC00000F065F8204600F063F82777280715D560
:101BD000300713D521686FF00800086104202077D2
:101BE0002068C0698007204602D0FFF7B7FF04E0F5
:101BF00000F04DF8204600F04BF82777E80616D5A0
:101C0000F00614D521686FF01000086108202077D5
:101C10002068C06910F4407F204602D0FFF79EFF85
:101C200004E000F034F8204600F032F82777E807A7
:101C300008D0F00706D021686FF001000861204647
:101C400000F028F8280608D5300606D521686FF080
:101C5000800008612046FFF753FE680608D570062D
:101C600006D521686FF040000861204600F0B6F804
:101C7000A8060AD5B00608D521686FF020000861D3
:101C80002046BDE8F041FFF73CBEBDE8F08170475B
:101C9000704700002DE9FC470068B0F1804F79D112
:101CA0003D48FEF7A2FF800574D53B48FEF79FFF35
:101CB0003A4C80B2208000F0E9FF86B2668020882E
:101CC000FEF7A4FCDFF8D8804FF066373A4643466B
:101CD000FEF79FFB6FF00B094A46FEF77BFCFEF711
:101CE000C9FC05463046FEF791FC3A464346FEF7EE
:101CF00090FB4A46FEF76EFCFEF7BCFC0646284603
:101D0000FEF7A5FC274D00222B46FEF782FB264F4F
:101D100000223B46FEF7EFFBFEF7ACFCA06030462E
:101D2000FEF795FC00222B46FEF773FB00223B4694
:101D3000FEF7E1FBFEF79EFCE060FEF788FC0E4636
:101D400005461A4A1A4BFEF75EFB4FF0FF32FEF7CC
:101D500041FC0022174BFEF75CFBFEF78BFC16499B
:101D60002061884201DD216104E010F1FF4F01D3C1
:101D7000002020612069FEF76AFC0446CDE900419D
:101D80002A4633460DA000F0FFFABDE8FC470248A2
:101D9000FFF764B8BDE8FC872800002000000020A1
:101DA00066660A4000003E40000024409A999999D6
:101DB00099991940000059400000C8424144435FCE
:101DC00053616D706C655F76616C75653A25662C44
:101DD000252E326625250D0A00000000704770B5DB
:101DE000040004D094F84100002510B106E0012061
:101DF00070BD84F84050204600F024F8242084F878
:101E000041002068C16821F40051C160204600F003
:101E100025FA2068016921F4904101612068416937
:101E200021F02A0141612068C16841F40051C1607C
:101E30006564202084F8410084F842006563002036
:101E400070BD000030B585B0002400940194029468
:101E5000039400681449884224D11448816941F4EC
:101E600080418161816901F480410491816941F07F
:101E70000401816180690E4D00F0040004904FF46C
:101E800000700090022001900320039069462846CC
:101E9000FFF74AF82815CDE9000469462846029460
:101EA000FFF742F805B030BD003801400010024095
:101EB000000801402DE9F843044690F84100984697
:101EC00016460D46202802D00220BDE8F88385B1D1
:101ED0007EB100206064212084F84100FFF720F9E2
:101EE000A6848146E684A0682027B0F5805F02D0F2
:101EF00003E00120E9E7206910B12E4600250EE03D
:101F000000260CE08021204600F004FAA8B9C6B1F2
:101F100016F8010B21684860E08C401EE084E08CDC
:101F20004B464FF00002CDF800800028EAD14FF078
:101F30004001204600F0EEF940B184F841700320E2
:101F4000C3E735F8020BC0F30800E3E784F84170FB
:101F50000020BAE7FEE700003EB5002111480091DD
:101F600001910F4A029102608160017301750124A1
:101F70004FF460220461C2614160FEF7A9FE08B11E
:101F8000FEF744FD0A20CDE90004072002906946CF
:101F90000448FEF7ABFD002801D0FEF737FD3EBD3B
:101FA0000024014028000020094808B5816941F05B
:101FB00010018161816901F010010091816941F096
:101FC00004018161806900F00400009008BD0000F8
:101FD0000010024010B586B0002417480094019408
:101FE0000294039404944FF080410594016041F6FB
:101FF0001F41C0E9011442F20F71C0E9031484616A
:10200000FFF7BEFC08B1FEF701FD4FF480500090D1
:1020100069460948FFF734FD08B1FEF7F7FC049460
:1020200004A905480594FFF76DFC002801D0FEF7D0
:10203000EDFC06B010BD0000580000200C4810B5A3
:102040000A4901604FF4E1314160002181600C22B6
:10205000C160C0E904128161C161FFF7C0FE0028C0
:1020600003D0BDE81040FEF7D1BC10BD00380140E0
:10207000A0000020FEE7FEE770477047FFF756B864
:1020800030B595B028216846FEF787F814210AA8D4
:10209000FEF783F818210FA8FEF77FF80121080446
:1020A000CDE900100025029502240491CDE90740F6
:1020B0004FF4E01009906846FFF77EFA08B172B657
:1020C000FEE70AA90F2081E831004FF48060CDE9D6
:1020D0000D0502210AA8FFF793F908B172B6FEE7D1
:1020E0004FF4004011900F940FA8FFF713F9002848
:1020F00001D072B6FEE715B030BD70470148FFF75A
:102100002EBD000058000020F0B50268204C214D83
:10211000214E224F224B4FF0804CA04209D09842D2
:1021200007D0604505D0A84203D0B04201D0B842E4
:1021300004D122F0700E4A6842EA0E02A04209D091
:10214000984207D0604505D0A84203D0B04201D0E4
:10215000B84203D122F44075CA682A434D6922F07F
:1021600080022A4302608A68C2620A688262A042D0
:1021700001D0984201D109690163012141610169DE
:10218000C90703D0016921F001010161F0BD000020
:10219000002C01400004004000080040000C0040FA
:1021A0000034014010B5846842EA032224F47F44DD
:1021B0000A432243826010BD826822F070020A4303
:1021C00042F007018160704710B5036A046A24F089
:1021D00001040462846924F0F00444EA021423F048
:1021E0000A020A438461026210BD10B5036A046AE0
:1021F00024F010040462846923F0A00324F47044E2
:1022000044EA023243EA01118261016210BD0168B1
:102210000C3151E8002F22F4907241E80023002B8A
:10222000F5D10168143151E8002F22F0010241E894
:102230000023002BF5D1016B012909D101680C3174
:1022400051E8002F22F0100241E80023002BF5D1C5
:10225000202180F8421000210163704770B50446C8
:1022600000680169E26821F440511143016121696C
:10227000A0680843616908432168CA6841F20C6399
:102280009A430243CA6020684169A26921F44071FF
:10229000114341611E492068884202D1FFF756F977
:1022A00001E0FFF743F900EBC00101EB00126068A9
:1022B00064218000B2FBF0F3B3FBF1F36FF018067A
:1022C0007343B2FBF0F5B2FBF0F605EB8305322366
:1022D00003EB0515B5FBF1F5B6FBF1F605F0F005DE
:1022E00005EB0615B2FBF0F6B2FBF0F0B0FBF1F037
:1022F0006FF01802504306EB800003EB0010B0FBB8
:10230000F1F0216800F00F002844886070BD0000E3
:10231000003801402DE9F843984617460D4604461B
:10232000089E24E0701C22D0FEF7FAFEA0EB080005
:10233000B0421AD8CEB12068C168490717D5802DA0
:1023400015D0402D13D00168C94309070FD4016887
:102350000025406800902046FFF759FF0820606480
:1023600084F840500120BDE8F8830320FBE7206893
:10237000006835EA000004D00020B842D2D0002026
:10238000F1E70120F9E7FEE70FB4054B10B503A90B
:10239000044A029800F0EAF810BC5DF814FB000053
:1023A000752C0008240000200907090E002804DB12
:1023B00000F1E02080F80014704700F00F0000F1F9
:1023C000E02080F8141D704702E008C8121F08C101
:1023D000002AFAD170477047002001E001C1121FA6
:1023E000002AFBD1704700002DE9FF5F82B0002179
:1023F000DDE90430020DDDF840B0034318D044F6A7
:102400001050A2F2FF3242431514119801281FD038
:10241000A5EB0B00401C5FEA000A4FF000064E4F90
:10242000DFF83891B046504615D5CAF1000413E0E4
:10243000119801244AA3012801D16FEA0B010298E7
:10244000119AC0E90031C0E9024206B0BDE8F09F30
:10245000CBF10000DFE704460021404A491842EB77
:102460000450CDE9001012E0E00707D032463B46A9
:1024700040464946FDF7CDFF8046894632463B46F9
:1024800010461946FDF7C5FF06460F466410002C9E
:10249000EAD1DDE90401DDE90023BAF1000F06DA33
:1024A000FDF7B7FF42464B46FDF7B3FF05E0FEF7E9
:1024B00022F842464B46FEF71EF804460E4600221E
:1024C000284BFEF707FA03D84FF0FF30014607E02C
:1024D0000022254B20463146FDF7F4FEFEF7E2F9D7
:1024E000102409E0002C0ADB0A220023FEF7F4F88E
:1024F000039B30321A55641E50EA0102F2D1641C6B
:10250000039AC4F111031444119A012A03D0012241
:1025100008430DD10AE0084304D000204FF0110B0E
:10252000119072E7A3EB0B056D1E0DE05B4504DD1A
:102530004FF0000205F1010504E003DA4FF000025C
:10254000A5F10105002AECD002981199C0E90231E9
:10255000C0E9004579E70000000014400000F03FAA
:10256000300000000000F0430000E03F2DE9FF4F85
:1025700095B09A46884606460025EEE1252877D193
:1025800000242746F94A0121039400E0044316F889
:10259000013F203B01FA03F01042F7D130782A289E
:1025A00011D06FF02F033078A0F13002092A16D82D
:1025B000039A44F0020402EB820203EB420210444D
:1025C000761C0390EFE758F8042B0392002A03DAF5
:1025D000504244F40054039044F00204761C3078D6
:1025E0002E2816D116F8010F44F004042A280DD025
:1025F0006FF02F023078A0F13003092B09D807EBD8
:10260000870302EB4303C718761CF3E758F8047BF3
:10261000761C30786C280FD006DC4C2817D0682840
:102620000DD06A2814D104E0742810D07A280FD174
:102630000DE044F400140AE044F4801401E044F492
:1026400040147278824202D104F58014761C761C04
:10265000307866280BD013DC582877D009DC0028A6
:1026600075D04528F6D04628F4D047281AD193E1F2
:1026700018E0632835D0642879D0652812D18BE121
:10268000702873D008DC6728F1D069286FD06E28D5
:102690000DD06F2806D1ACE073282CD0752874D0EB
:1026A000782853D05246179990476D1C54E1C4F3D3
:1026B0000250022809D003280DD0D8F800100428B1
:1026C0000DD00D6008F1040846E1D8F80010EA17B3
:1026D000C1E90052F6E7D8F800100D80F2E70D705E
:1026E000F0E718F8041B8DF8001000208DF80100A9
:1026F000EB46012003E058F804BB4FF0FF306107C0
:102700004FF0000102D40DE009F101018946B94200
:102710000FDA8145F8DB1BF809100029F4D108E035
:1027200009F1010189468142FADB1BF809100029F1
:10273000F6D103985346A0EB090721463846179A6D
:1027400000F080FA284400EB090507E044E008E1C6
:102750000DE01BF8010B524617999047B9F101099A
:10276000F7D2534621463846179AF2E039E00A215B
:10277000C4F302524FF0000B0091022A06D058F821
:10278000040BC117032A09D00AE023E008F107006F
:1027900020F00702F2E80201904605E000B2C117FE
:1027A000042A01D140B2C117002906DA0A460021E5
:1027B000404261EB02012D2202E0220504D52B22CA
:1027C0008DF80420012203E0E20701D02022F7E780
:1027D000914657E00A2100E010214FF0000B0091D4
:1027E0000BE010214FF0000B44F004040827009187
:1027F00003E008204FF0000B0090C4F30252022ABD
:1028000005D058F8040B0021032A08D008E008F18D
:10281000070020F00702F2E80201904603E080B2D0
:10282000042A00D1C0B24FF0000922072AD532781D
:10283000702A07D0DDF800C08CF0100C5CEA0B0C9D
:1028400005D00EE040228DF80420012208E050EA75
:10285000010306D030238DF804308DF805200222C4
:102860009146009B83F0080353EA0B030AD150EA18
:10287000010201D1620705D530228DF804204FF006
:1028800001097F1E3278582A04D039A20C920CAA72
:1028900002920BE03BA2F9E75B46009AFDF71CFFB2
:1028A0000C9B9B5C029A521E0292137050EA01022A
:1028B000F2D1029804A9081A00F1200B600702D592
:1028C00024F4803400E001275F4502DDA7EB0B0014
:1028D00000E0002000EB0B01009003984944401AEF
:1028E0000390E00306D453462146179A039800F05C
:1028F000A9F90544002706E001A85246C05D1799D2
:1029000090476D1C7F1C4F45F6DBE0030CD553460A
:102910002146179A039800F095F9054404E0302009
:102920005246179990476D1C0099481E0090002947
:10293000F5DC08E00298029952460078491C0291A1
:10294000179990476D1CBBF10001ABF1010BF1DC55
:102950005BE100F065F90544761C307800287FF4CF
:102960000DAE19B02846BDE8F08F0000092801001F
:1029700030313233343536373839616263646566F5
:1029800000000000303132333435363738394142B7
:102990004344454600000000600700D4062708F1C4
:1029A000070020F00700F0E80223804603F0004C07
:1029B0005FEA0C0001D097A009E0200501D596A0A0
:1029C00005E0E00701D095A001E0AFF24C001390C4
:1029D000307823F0004365280CD006DC452809D068
:1029E00046281DD047287FD13BE0662818D06728AD
:1029F0007AD136E00021112F01DB112000E0781C94
:102A0000CDE9000104A90CA8FFF7EEFCDDE90D01FA
:102A10000C9A4FF0000B07F10109109200914EE063
:102A20004FF000400097CDE9011004A90CA8FFF772
:102A3000DBFCDDE90D020C9B0F994FF0000B91467A
:102A40001093009211B9791C00EB0109B7EB090052
:102A500003D4C0F1FF3B07F10109A9EB0700019086
:102A600042E0012F00DA01270021112F01DD1120A2
:102A700000E03846CDE9000104A90CA8FFF7B4FC3A
:102A8000DDE90D010C9A00914FF0000BB946109250
:102A900021070FD4009A4A4503DA914601E0A9F1D3
:102AA0000109B9F1010F05DD109AA9F10101515C8D
:102AB0003029F4D0B84202DA10F1040F03DA012110
:102AC000CDE9011010E0002803DC8344A9EB0001EC
:102AD00002E0411C494500DD8946A0EB0B00401C8B
:102AE00001904FF000400290200705D4019848451E
:102AF00002DB4FF0FF30019000208DF84B00029870
:102B00000DF14B07B0F1004F25D002200C902B2087
:102B10000D90029800280CDA404202902D200D9072
:102B200007E00A210298FDF7C1FD3031029007F855
:102B3000011D0C99481E0C900029F2DC0298002817
:102B4000EFD1791E0D980870307800F0200040F029
:102B5000450007F8020D11A8C01BC01D0290139874
:102B6000007800B1012000EB0901019801EBE07150
:102B7000029801440398401A401E0390E00306D4D3
:102B800053462146179A039800F05CF805441398C1
:102B9000007818B15246179990476D1CE00323D571
:102BA00053462146179A039800F04CF805441BE061
:102BB000BBF1000F07DB0098584504DD109817990A
:102BC00010F80B0001E01799302052469047019809
:102BD0000BF1010B401E05F10105019004D12E20DF
:102BE0005246179990476D1CB9F10001A9F10109EE
:102BF000DEDC05E017F8010B5246179990476D1C73
:102C00000299481E02900029F4DC53462146179A87
:102C100003989EE62D0000002B000000200000001D
:102C20002DE9F041044600251E461746880404D4C9
:102C300005E039462020B0476D1C641EF9D52846B2
:102C4000BDE8F0812DE9F041044600251E4690467E
:102C5000C80301D5302700E02027880404D505E00B
:102C600041463846B0476D1C641EF9D52846BDE87C
:102C7000F081000013B54FF47A73012269460248CF
:102C8000FFF718F900981CBDA00000202DE9F041C5
:102C90000D4D07460B4E6868FDF7B3FC01460B4827
:102CA000FDF7DEFA04463846FDF7ABFC3146FDF78A
:102CB000D7FA2146FDF77CFAFDF7B5FC6860BDE860
:102CC000F0810000CDCCCC3E000000209A99193F45
:102CD000FEF734FAFFF7D4F9FFF766F9FFF73CF98E
:102CE000FFF7ACF9FFF776F90448FDF791FE0348CA
:102CF000FEF7B4F80248FEF78DFEFEE7280000203C
:102D000058000020010202030405060708090A0B07
:102D10000C0D0E0F1010010202030405060708092E
:102D20000A0B0C0D0E0F1010000000000000000038
:102D30000102030406070809000000000102030461
:102D4000602D00080000002028000000C8230008B3
:102D5000882D000828000020C0040000D8230008A7
:102D60000000000000000000000000000000000063
:102D70000000000001000000100000000000000042
:082D800000127A0000000000BF
:0400000508000131BD
:00000001FF
