:020000040800F2
:10000000700600205D010008990C0008090C00082A
:1000100000000000000000000000000000000000E0
:100020000000000000000000000000009D0C00081F
:1000300000000000000000009B0C00089F0C00085E
:100040006F010008000000006F0100086F01000848
:100050006F0100086F0100086F0100086F010008C0
:10006000000000006F0100086F0100086F01000828
:100070006F0100086F0100086F0100080000000018
:100080006F0100086F0100086F0100086F01000890
:100090006F0100086F0100086F0100086F01000880
:1000A0006F0100086F0100086F0100086F01000870
:1000B0006F0100086F01000800F002F800F03EF840
:1000C0000CA030C8083824182D18A246671EAB466D
:1000D00054465D46AC4201D100F030F87E460F3EFA
:1000E0000FCCB6460126334200D0FB1AA246AB46DF
:1000F00033431847DC0C0000FC0C0000103A02D31C
:1001000078C878C1FAD8520701D330C830C101D5B8
:1001100004680C60704700000023002400250026BE
:10012000103A01D378C1FBD8520700D330C100D5B3
:100130000B6070471FB51FBD10B510BD00F07BF9F7
:100140001146FFF7F7FF00F015FE00F093F903B436
:10015000FFF7F2FF03BC00F099F900000748804761
:1001600007480047FEE7FEE7FEE7FEE7FEE7FEE79B
:1001700004480549054A064B70470000FD0C00087D
:10018000B9000008700000207006002070020020F6
:1001900070020020FEB5054610460C46184373D089
:1001A000AE468C460020AD1A01469C4167D3664698
:1001B000002701243D46B61A9D4102D313463A4614
:1001C0002124654676462F04360C3E432D0CB61A84
:1001D0009D4104D3150C1B042B43120410346546B7
:1001E00076462F06360A3E432D0AB61A9D4104D3A1
:1001F000150E1B022B4312020834654676462F0764
:1002000036093E432D09B61A9D4104D3150F1B0133
:100210002B431201241D65467646AF07B6083E43C0
:10022000AD08B61A9D4104D3950F9B002B43920055
:10023000A41C65467646EF0776083E436D08B61A5D
:100240009D411AD392185B41641C16E00018764653
:1002500065464941B71A9D410191009009D3604616
:10026000B11A98418E468446009801990025401C99
:100270006941DD0752082A435B08641EE6D57246D1
:10028000634603B0F0BDFFE700200146C046C0460C
:100290002A462346F5E701E004C0091F0429FBD2E2
:1002A0008B0701D50280801CC90700D002707047FF
:1002B00000290BD0C30702D00270401C491E02293E
:1002C00004D3830702D50280801C891EE3E7002245
:1002D000EEE70022DFE7002203098B422CD3030A5A
:1002E0008B4211D300239C464EE003460B433CD483
:1002F000002243088B4231D303098B421CD3030AEB
:100300008B4201D394463FE0C3098B4201D3CB011A
:10031000C01A524183098B4201D38B01C01A52414A
:1003200043098B4201D34B01C01A524103098B424E
:1003300001D30B01C01A5241C3088B4201D3CB0039
:10034000C01A524183088B4201D38B00C01A52411C
:1003500043088B4201D34B00C01A5241411A00D2CC
:1003600001465241104670475DE0CA0F00D0494235
:10037000031000D34042534000229C4603098B42A5
:100380002DD3030A8B4212D3FC22890112BA030A2D
:100390008B420CD3890192118B4208D389019211AF
:1003A0008B4204D389013AD0921100E08909C30934
:1003B0008B4201D3CB01C01A524183098B4201D336
:1003C0008B01C01A524143098B4201D34B01C01A21
:1003D000524103098B4201D30B01C01A5241C30899
:1003E0008B4201D3CB00C01A524183088B4201D308
:1003F0008B00C01A5241D9D243088B4201D34B0023
:10040000C01A5241411A00D20146634652415B1064
:10041000104601D34042002B00D549427047634645
:100420005B1000D3404201B50020C046C04602BD6B
:10043000704770477047754600F024F8AE460500D7
:1004400069465346C008C000854618B020B5FFF77E
:100450008FFE60BC00274908B6460026C0C5C0C54F
:10046000C0C5C0C5C0C5C0C5C0C5C0C5403D4900A8
:100470008D46704710B50446C046C0462046FFF77B
:1004800066FE10BD0048704710000020014918208A
:10049000ABBEFEE72600020070470000F8B500235F
:1004A00003240125BAE02E469E40B44632407CD05B
:1004B0000E79B607B60F012E01D0022E17D186682D
:1004C0002746B6465E00B74000967646BE43B6461F
:1004D000CF68009EB74076463743876046686746D8
:1004E000BE430F79FF06FF0F9F40374347600E79E9
:1004F000F643B6070ED0C6682746B4465E00B64639
:10050000B7406646BE43B4468F687646B7406646F7
:100510003743C7600E79B607B60F022E14D1DE0836
:10052000B60036180096366A5F07B446FE0E0F27EF
:10053000B646B7406646BE43B4460F697646B740F6
:1005400066463743009E376206682746B4465E001B
:10055000B646B7406646BE430F79B446BF07BF0FE5
:100560007646B7406646374307604E68B603B60F17
:1005700053D02D4FBE692E43BE61BE699F08F6075A
:10058000F60F2A4EBF00BE190096B6680F27B44674
:100590009E07360FB646B7406646BE430927FF069C
:1005A000B446B84202D1002710E036E0204FB842EE
:1005B00001D101270AE01F4FB84201D1022705E00F
:1005C0001D4FB84201D1032700E005277646B7400A
:1005D00066463743009EB760184EB6684F6896432C
:1005E000FF0200D51643154FBE60FE684F68964364
:1005F000BF0200D51643114FFE607E684F689643D8
:10060000BF0300D516430D4F7E603E684F6896438A
:10061000FF0300D51643094A16605B1C0A6816469C
:10062000DE4000D03FE7F8BD00100240000001406E
:100630000004004800080048000C00480004014085
:10064000002A01D08161704781627047014880684B
:100650007047000000000020024881680278891875
:10066000816070470000002010B506480168102224
:1006700011430160032000F007F800F027F8002084
:1006800010BD00000020024070B504460D4D7D20D5
:100690002978C000FFF71FFE01460B480068FFF7EE
:1006A0001AFE00F099FA002809D1042C07D2002282
:1006B0002146401E00F01EF800206C6070BD012035
:1006C00070BD0000000000200C00002008B50848A4
:1006D0008169012211438161816911400091C269E0
:1006E00001040A43C261C0690840009008BD0000CF
:1006F0000010024010B500F01BFB10BDF8B50F460E
:10070000060059D03A4D2868C007C00FB84209D238
:10071000286840084000384328602868C007C00F98
:10072000B84249D13068334C81070CD5400704D515
:10073000606807210902084360606068F02188430F
:10074000B168084360603078C00726D0706801281F
:100750000ED0216802280ED0890700292CDA6168A2
:100760008908890001436160FFF770FF00900DE088
:1007700021688903F1E78901EFE7FFF767FF009937
:10078000411A1D48814201D90320F8BD60680C213F
:100790000840716889008842EFD12868C007C00FFF
:1007A000B8420BD9286840084000384328602868C0
:1007B000C007C00FB84201D00120F8BD3078400713
:1007C00006D56068072109028843F1680843606024
:1007D00000F018F86168094A0906090F515CC84021
:1007E000074908600320FFF74FFF0020F8BD000015
:1007F000002002400010024088130000C00D0008D5
:100800000C00002010B50F494B680C201A4602401E
:100810000D48042A14D0082A12D19A020B4C120F48
:10082000A45CC96A094A0907090F1032525CD9034E
:10083000890F00231946FFF7ADFC214600F05FFA4F
:1008400010BD00000010024000127A00A00D000848
:10085000FEB5040071D02078DC4DC00749D068682F
:100860000007800F012820D068680007800F022849
:1008700004D16868C003800F022816D00120626886
:100880000004012A18D08100002A01D0052A17D0BF
:100890002A6882432A6028688843286060680028A4
:1008A0001BD0FFF7D3FE064613E02868800320D54F
:1008B00060680028CED01CE0296801432960EDE77C
:1008C0002A680A432A60F7E7FFF7C0FE801B642806
:1008D00070D828688003F7D50BE0FFF7B7FE06460F
:1008E00004E0FFF7B3FE801B6428F1D8286880037A
:1008F000F7D420780126800700283EDA68680007D0
:10090000800F13D068680007800F022804D1686840
:10091000C003800F012809D0E068002828681DD096
:1009200030432860FFF792FE07460CE028688007F6
:100930000CD5E068012800D108E043E1FFF786FE0E
:10094000C01B0228C4D828688007F7D52868F8217A
:1009500088432169C900084328600EE04008400030
:100960002860FFF773FE074604E0FFF76FFEC01B29
:100970000228ADD828688007F7D42078000722D550
:10098000E0690028686A0ED030436862FFF75EFEB7
:10099000074604E0FFF75AFEC01B022898D8686A91
:1009A0008007F7D50FE0400840006862FFF74EFE71
:1009B000074605E09DE0FFF749FEC01B022887D8E7
:1009C000686A8007F7D4207804274007002860DA97
:1009D00000200190E869C00008D4E969B806014325
:1009E000E961E969014001200091019078480168BE
:1009F000C90511D40168821511430160FFF726FE75
:100A0000009005E0FFF722FE0099401A642870D894
:100A10006F480068C005F5D5A06801280AD00028F5
:100A200001D0052810D0286A400840002862286AB2
:100A3000B84301E0286A30432862A068002812D039
:100A4000FFF704FE00900AE0286A38432862F1E7C5
:100A5000FFF7FCFD0099411A5E48814249D8286A97
:100A60008007F5D50DE0FFF7F1FD009006E0FFF7F8
:100A7000EDFD0099411A574881423AD8286A80070B
:100A8000F5D40198002804D0E869012109078843BA
:100A9000E8612078C00635D5606901280CD0401D7A
:100AA000686B23D038436863686B40084000686314
:100AB000FFF7CCFD064622E0686B38436863686B3D
:100AC00030436863FFF7C2FD064604E0FFF7BEFD52
:100AD000801B02285BD8686B8007F7D5686BF8210C
:100AE0008843A169C900084368630BE0B8436863A1
:100AF000F4E74CE0FFF7AAFD801B022847D8686B9B
:100B00008007F7D4206A00285ED069680907890F3A
:100B1000022942D0012636060228286805D0B043B3
:100B20002860FFF793FD044633E0B0432860FFF7E9
:100B30008DFD074604E0FFF789FDC01B022826D87B
:100B400028688001F7D4E86AE16A000900010843D7
:100B5000E862616AA06A084369687B22D203914314
:100B600008436860286830432860FFF76FFD04463B
:100B700004E0FFF76BFD001B022808D828688001FD
:100B8000F7D521E0FFF762FD001B022801D9032001
:100B9000FEBD28688001F5D416E00128F8D0686809
:100BA000E96A0322D203636A02409A420AD1090722
:100BB000E26A090F914205D10F2189040840A16A18
:100BC000884201D00120FEBD0020FEBD0010024081
:100BD0000070004088130000094910B5401E88428B
:100BE00001D9012010BD074C60610321081F00F0EE
:100BF0009FF80020A06107202061002010BD0000A8
:100C0000FFFFFF0000E000E0FEE70000F0B587B066
:100C100014216846FFF75DFB1C48426901218905E4
:100C20000A43426142690A400592426949110A43F6
:100C3000426142690A400592426949000A434261A1
:100C4000406909270840FF060590002280213846A8
:100C5000FFF7F6FC0E4E002231460E48FFF7F0FC7F
:100C60008020002401250090029469460195039498
:100C70003846FFF713FC0294694606480096019532
:100C80000394FFF70BFC07B0F0BD0000001002401A
:100C90000160000000040048FEE77047704710B58F
:100CA000FFF7DAFC10BD30B591B030216846FFF790
:100CB00010FB00240120009001900E940004099084
:100CC0000F9400010D9402250A900C9408950B9442
:100CD0006846FFF7BDFD002801D072B6FEE7072089
:100CE0000C900E9401210D950F940CA8FFF706FDB2
:100CF000002801D072B6FEE711B030BD7047F8B5DC
:100D0000040C8BB2264682B25E430D0C1046370CA3
:100D10005843360480190021794116466E43370C3A
:100D200036048019794126466E438919F8BD0000C2
:100D30008307FF22DB0E9A408907090E994000289D
:100D400008DB830809489B001B1818689043084378
:100D5000186070470007000F0838830804489B009C
:100D60001B18D86990430843D861704700E400E03D
:100D700000ED00E0FFF778FCFFF795FFFFF746FF77
:100D8000064C0925ED06002201212046FFF758FCFC
:100D9000012280212846FFF753FCF4E700040048B5
:100DA00002030405060708090A0B0C0D0E0F1010AC
:100DB0000102030405060708090A0B0C0D0E0F10AB
:100DC00000000000000000000102030406070809FB
:100DD000F00D00080000002010000000FC000008DA
:100DE000000E000810000020600600001801000836
:100DF00001000000040000000000000000127A0062
:04000005080000B936
:00000001FF
